{
  "contractName": "VotingContract",
  "abi": [
    {
      "inputs": [],
      "payable": false,
      "stateMutability": "nonpayable",
      "type": "constructor"
    },
    {
      "anonymous": false,
      "inputs": [
        {
          "indexed": true,
          "internalType": "address",
          "name": "voter",
          "type": "address"
        },
        {
          "indexed": false,
          "internalType": "uint256",
          "name": "candidateId",
          "type": "uint256"
        }
      ],
      "name": "VoteRecorded",
      "type": "event"
    },
    {
      "constant": true,
      "inputs": [
        {
          "internalType": "uint256",
          "name": "",
          "type": "uint256"
        }
      ],
      "name": "candidates",
      "outputs": [
        {
          "internalType": "uint256",
          "name": "id",
          "type": "uint256"
        },
        {
          "internalType": "string",
          "name": "name",
          "type": "string"
        },
        {
          "internalType": "string",
          "name": "imageUrl",
          "type": "string"
        },
        {
          "internalType": "uint256",
          "name": "voteCount",
          "type": "uint256"
        }
      ],
      "payable": false,
      "stateMutability": "view",
      "type": "function"
    },
    {
      "constant": true,
      "inputs": [
        {
          "internalType": "address",
          "name": "",
          "type": "address"
        }
      ],
      "name": "hasVoted",
      "outputs": [
        {
          "internalType": "bool",
          "name": "",
          "type": "bool"
        }
      ],
      "payable": false,
      "stateMutability": "view",
      "type": "function"
    },
    {
      "constant": true,
      "inputs": [],
      "name": "owner",
      "outputs": [
        {
          "internalType": "address",
          "name": "",
          "type": "address"
        }
      ],
      "payable": false,
      "stateMutability": "view",
      "type": "function"
    },
    {
      "constant": false,
      "inputs": [
        {
          "internalType": "uint256",
          "name": "candidateId",
          "type": "uint256"
        }
      ],
      "name": "vote",
      "outputs": [],
      "payable": false,
      "stateMutability": "nonpayable",
      "type": "function"
    },
    {
      "constant": true,
      "inputs": [],
      "name": "getCandidates",
      "outputs": [
        {
          "components": [
            {
              "internalType": "uint256",
              "name": "id",
              "type": "uint256"
            },
            {
              "internalType": "string",
              "name": "name",
              "type": "string"
            },
            {
              "internalType": "string",
              "name": "imageUrl",
              "type": "string"
            },
            {
              "internalType": "uint256",
              "name": "voteCount",
              "type": "uint256"
            }
          ],
          "internalType": "struct VotingContract.Candidate[]",
          "name": "",
          "type": "tuple[]"
        }
      ],
      "payable": false,
      "stateMutability": "view",
      "type": "function"
    }
  ],
  "bytecode": "0x608060405234801561001057600080fd5b50600280546001600160a01b0319163317905560408051608081018252600080825282518084018452600b81526a43616e646964617465203160a81b60208281019190915280840191825284518086018652601e81527f68747470733a2f2f6578616d706c652e636f6d2f696d616765312e706e67000081830152948401949094526060830182905281546001810180845592805283516004909102600080516020610b0e833981519152810191825591518051939591936100e793600080516020610b2e83398151915201929190910190610206565b5060408201518051610103916002840191602090910190610206565b5060609182015160039091015560408051608081018252600180825282518084018452600b81526a21b0b73234b230ba32901960a91b60208281019190915280840191825284518086018652601e81527f68747470733a2f2f6578616d706c652e636f6d2f696d616765322e706e67000081830152948401949094526000948301859052845491820180865594805282516004909202600080516020610b0e833981519152810192835590518051959650929491936101d793600080516020610b2e83398151915290920192910190610206565b50604082015180516101f3916002840191602090910190610206565b50606082015181600301555050506102a1565b828054600181600116156101000203166002900490600052602060002090601f016020900481019282601f1061024757805160ff1916838001178555610274565b82800160010185558215610274579182015b82811115610274578251825591602001919060010190610259565b50610280929150610284565b5090565b61029e91905b80821115610280576000815560010161028a565b90565b61085e806102b06000396000f3fe608060405234801561001057600080fd5b50600436106100575760003560e01c80630121b93f1461005c57806306a49fce1461007157806309eef43e1461008f5780633477ee2e146100af5780638da5cb5b146100d2575b600080fd5b61006f61006a36600461052e565b6100e7565b005b6100796101c0565b60405161008691906106f6565b60405180910390f35b6100a261009d366004610508565b610367565b6040516100869190610707565b6100c26100bd36600461052e565b61037c565b6040516100869493929190610743565b6100da6104dd565b60405161008691906106e8565b3360009081526001602052604090205460ff16156101205760405162461bcd60e51b815260040161011790610725565b60405180910390fd5b60005481106101415760405162461bcd60e51b815260040161011790610715565b3360009081526001602081905260408220805460ff1916909117905580548290811061016957fe5b600091825260209091206003600490920201018054600101905560405133907f8526c3debc05fa47d452deff6098c92355df470ccfdaeaf2c357db45e4451a2c906101b5908490610735565b60405180910390a250565b60606000805480602002602001604051908101604052809291908181526020016000905b8282101561035e578382906000526020600020906004020160405180608001604052908160008201548152602001600182018054600181600116156101000203166002900480601f0160208091040260200160405190810160405280929190818152602001828054600181600116156101000203166002900480156102aa5780601f1061027f576101008083540402835291602001916102aa565b820191906000526020600020905b81548152906001019060200180831161028d57829003601f168201915b5050509183525050600282810180546040805160206001841615610100026000190190931694909404601f8101839004830285018301909152808452938101939083018282801561033c5780601f106103115761010080835404028352916020019161033c565b820191906000526020600020905b81548152906001019060200180831161031f57829003601f168201915b50505050508152602001600382015481525050815260200190600101906101e4565b50505050905090565b60016020526000908152604090205460ff1681565b6000818154811061038957fe5b9060005260206000209060040201600091509050806000015490806001018054600181600116156101000203166002900480601f01602080910402602001604051908101604052809291908181526020018280546001816001161561010002031660029004801561043b5780601f106104105761010080835404028352916020019161043b565b820191906000526020600020905b81548152906001019060200180831161041e57829003601f168201915b50505060028085018054604080516020601f60001961010060018716150201909416959095049283018590048502810185019091528181529596959450909250908301828280156104cd5780601f106104a2576101008083540402835291602001916104cd565b820191906000526020600020905b8154815290600101906020018083116104b057829003601f168201915b5050505050908060030154905084565b6002546001600160a01b031681565b80356104f7816107fb565b92915050565b80356104f781610812565b60006020828403121561051a57600080fd5b600061052684846104ec565b949350505050565b60006020828403121561054057600080fd5b600061052684846104fd565b6000610558838361067c565b9392505050565b610568816107a2565b82525050565b600061057982610795565b6105838185610799565b9350836020820285016105958561078f565b8060005b858110156105cf57848403895281516105b2858261054c565b94506105bd8361078f565b60209a909a0199925050600101610599565b5091979650505050505050565b610568816107ad565b60006105f082610795565b6105fa8185610799565b935061060a8185602086016107c1565b610613816107f1565b9093019392505050565b600061062a601183610799565b70496e76616c69642063616e64696461746560781b815260200192915050565b6000610657601683610799565b75165bdd481a185d9948185b1c9958591e481d9bdd195960521b815260200192915050565b8051600090608084019061069085826106df565b50602083015184820360208601526106a882826105e5565b915050604083015184820360408601526106c282826105e5565b91505060608301516106d760608601826106df565b509392505050565b610568816107be565b602081016104f7828461055f565b60208082528101610558818461056e565b602081016104f782846105dc565b602080825281016104f78161061d565b602080825281016104f78161064a565b602081016104f782846106df565b6080810161075182876106df565b818103602083015261076381866105e5565b9050818103604083015261077781856105e5565b905061078660608301846106df565b95945050505050565b60200190565b5190565b90815260200190565b60006104f7826107b2565b151590565b6001600160a01b031690565b90565b60005b838110156107dc5781810151838201526020016107c4565b838111156107eb576000848401525b50505050565b601f01601f191690565b610804816107a2565b811461080f57600080fd5b50565b610804816107be56fea365627a7a72315820481f55c9293ac5c7ad8642a147f65f728388360733bd5ccf673eee51e67a0d7c6c6578706572696d656e74616cf564736f6c63430005100040290decd9548b62a8d60345a988386fc84ba6bc95484008f6362f93160ef3e563290decd9548b62a8d60345a988386fc84ba6bc95484008f6362f93160ef3e564",
  "source": "// VotingContract.sol\r\npragma solidity ^0.5.16;\r\npragma experimental ABIEncoderV2;\r\n\r\ncontract VotingContract {\r\n    struct Candidate {\r\n        uint id;\r\n        string name;\r\n        string imageUrl;\r\n        uint voteCount;\r\n    }\r\n\r\n    Candidate[] public candidates;\r\n    mapping(address => bool) public hasVoted;\r\n    address public owner;\r\n\r\n    event VoteRecorded(address indexed voter, uint candidateId);\r\n\r\n    constructor() public {\r\n        owner = msg.sender;\r\n        // Initialize with some candidates; adjust names and image URLs as needed.\r\n        candidates.push(\r\n            Candidate(0, \"Candidate 1\", \"https://example.com/image1.png\", 0)\r\n        );\r\n        candidates.push(\r\n            Candidate(1, \"Candidate 2\", \"https://example.com/image2.png\", 0)\r\n        );\r\n    }\r\n\r\n    // Cast a vote for a candidate.\r\n    function vote(uint candidateId) public {\r\n        require(!hasVoted[msg.sender], \"You have already voted\");\r\n        require(candidateId < candidates.length, \"Invalid candidate\");\r\n\r\n        hasVoted[msg.sender] = true;\r\n        candidates[candidateId].voteCount++;\r\n        emit VoteRecorded(msg.sender, candidateId);\r\n    }\r\n\r\n    // Retrieve the full list of candidates.\r\n    function getCandidates() public view returns (Candidate[] memory) {\r\n        return candidates;\r\n    }\r\n}\r\n",
  "sourcePath": "C:\\Users\\swali\\Desktop\\election\\contracts\\VotingContract.sol",
  "compiler": {
    "name": "solc",
    "version": "0.5.16+commit.9c3226ce.Emscripten.clang"
  },
  "schemaVersion": "3.4.16",
  "updatedAt": "2025-03-11T08:38:56.633Z",
  "networkType": "ethereum",
  "devdoc": {
    "methods": {}
  },
  "userdoc": {
    "methods": {}
  }
}