{
  "contractName": "VotingContract",
  "abi": [
    {
      "inputs": [],
      "payable": false,
      "stateMutability": "nonpayable",
      "type": "constructor"
    },
    {
      "anonymous": false,
      "inputs": [
        {
          "indexed": true,
          "internalType": "uint256",
          "name": "candidateId",
          "type": "uint256"
        },
        {
          "indexed": false,
          "internalType": "string",
          "name": "name",
          "type": "string"
        },
        {
          "indexed": false,
          "internalType": "string",
          "name": "imageUrl",
          "type": "string"
        }
      ],
      "name": "CandidateAdded",
      "type": "event"
    },
    {
      "anonymous": false,
      "inputs": [
        {
          "indexed": true,
          "internalType": "address",
          "name": "voter",
          "type": "address"
        },
        {
          "indexed": false,
          "internalType": "uint256",
          "name": "candidateId",
          "type": "uint256"
        }
      ],
      "name": "VoteRecorded",
      "type": "event"
    },
    {
      "constant": true,
      "inputs": [
        {
          "internalType": "uint256",
          "name": "",
          "type": "uint256"
        }
      ],
      "name": "candidates",
      "outputs": [
        {
          "internalType": "uint256",
          "name": "id",
          "type": "uint256"
        },
        {
          "internalType": "string",
          "name": "name",
          "type": "string"
        },
        {
          "internalType": "string",
          "name": "imageUrl",
          "type": "string"
        },
        {
          "internalType": "uint256",
          "name": "voteCount",
          "type": "uint256"
        }
      ],
      "payable": false,
      "stateMutability": "view",
      "type": "function"
    },
    {
      "constant": true,
      "inputs": [
        {
          "internalType": "address",
          "name": "",
          "type": "address"
        }
      ],
      "name": "hasVoted",
      "outputs": [
        {
          "internalType": "bool",
          "name": "",
          "type": "bool"
        }
      ],
      "payable": false,
      "stateMutability": "view",
      "type": "function"
    },
    {
      "constant": true,
      "inputs": [],
      "name": "owner",
      "outputs": [
        {
          "internalType": "address",
          "name": "",
          "type": "address"
        }
      ],
      "payable": false,
      "stateMutability": "view",
      "type": "function"
    },
    {
      "constant": false,
      "inputs": [
        {
          "internalType": "uint256",
          "name": "candidateId",
          "type": "uint256"
        }
      ],
      "name": "vote",
      "outputs": [],
      "payable": false,
      "stateMutability": "nonpayable",
      "type": "function"
    },
    {
      "constant": false,
      "inputs": [
        {
          "internalType": "string",
          "name": "_name",
          "type": "string"
        },
        {
          "internalType": "string",
          "name": "_imageUrl",
          "type": "string"
        }
      ],
      "name": "addCandidate",
      "outputs": [],
      "payable": false,
      "stateMutability": "nonpayable",
      "type": "function"
    },
    {
      "constant": true,
      "inputs": [],
      "name": "getCandidates",
      "outputs": [
        {
          "components": [
            {
              "internalType": "uint256",
              "name": "id",
              "type": "uint256"
            },
            {
              "internalType": "string",
              "name": "name",
              "type": "string"
            },
            {
              "internalType": "string",
              "name": "imageUrl",
              "type": "string"
            },
            {
              "internalType": "uint256",
              "name": "voteCount",
              "type": "uint256"
            }
          ],
          "internalType": "struct VotingContract.Candidate[]",
          "name": "",
          "type": "tuple[]"
        }
      ],
      "payable": false,
      "stateMutability": "view",
      "type": "function"
    }
  ],
  "bytecode": "0x608060405234801561001057600080fd5b50600280546001600160a01b03191633179055610bc5806100326000396000f3fe608060405234801561001057600080fd5b50600436106100625760003560e01c80630121b93f1461006757806306a49fce1461007c57806309eef43e1461009a57806326541b56146100ba5780633477ee2e146100cd5780638da5cb5b146100f0575b600080fd5b61007a6100753660046107cf565b610105565b005b6100846101de565b60405161009191906109d0565b60405180910390f35b6100ad6100a8366004610740565b610386565b60405161009191906109e1565b61007a6100c8366004610766565b61039b565b6100e06100db3660046107cf565b6104c8565b6040516100919493929190610a52565b6100f8610629565b60405161009191906109c2565b3360009081526001602052604090205460ff161561013e5760405162461bcd60e51b815260040161013590610a34565b60405180910390fd5b600054811061015f5760405162461bcd60e51b815260040161013590610a24565b3360009081526001602081905260408220805460ff1916909117905580548290811061018757fe5b600091825260209091206003600490920201018054600101905560405133907f8526c3debc05fa47d452deff6098c92355df470ccfdaeaf2c357db45e4451a2c906101d3908490610a44565b60405180910390a250565b60606000805480602002602001604051908101604052809291908181526020016000905b8282101561037c578382906000526020600020906004020160405180608001604052908160008201548152602001600182018054600181600116156101000203166002900480601f0160208091040260200160405190810160405280929190818152602001828054600181600116156101000203166002900480156102c85780601f1061029d576101008083540402835291602001916102c8565b820191906000526020600020905b8154815290600101906020018083116102ab57829003601f168201915b5050509183525050600282810180546040805160206001841615610100026000190190931694909404601f8101839004830285018301909152808452938101939083018282801561035a5780601f1061032f5761010080835404028352916020019161035a565b820191906000526020600020905b81548152906001019060200180831161033d57829003601f168201915b5050505050815260200160038201548152505081526020019060010190610202565b5050505090505b90565b60016020526000908152604090205460ff1681565b6002546001600160a01b031633146103c55760405162461bcd60e51b815260040161013590610a14565b6000805460408051608081018252828152602080820187815292820186905260608201859052600184018086559480528151600485027f290decd9548b62a8d60345a988386fc84ba6bc95484008f6362f93160ef3e5638101918255935180519596959394919361045f937f290decd9548b62a8d60345a988386fc84ba6bc95484008f6362f93160ef3e564909301929190910190610638565b506040820151805161047b916002840191602090910190610638565b5060608201518160030155505050807fe64f834082661dd9ed89427b87edb6270fd6dad17198b0938f0edd058914c87f84846040516104bb9291906109ef565b60405180910390a2505050565b600081815481106104d557fe5b9060005260206000209060040201600091509050806000015490806001018054600181600116156101000203166002900480601f0160208091040260200160405190810160405280929190818152602001828054600181600116156101000203166002900480156105875780601f1061055c57610100808354040283529160200191610587565b820191906000526020600020905b81548152906001019060200180831161056a57829003601f168201915b50505060028085018054604080516020601f60001961010060018716150201909416959095049283018590048502810185019091528181529596959450909250908301828280156106195780601f106105ee57610100808354040283529160200191610619565b820191906000526020600020905b8154815290600101906020018083116105fc57829003601f168201915b5050505050908060030154905084565b6002546001600160a01b031681565b828054600181600116156101000203166002900490600052602060002090601f016020900481019282601f1061067957805160ff19168380011785556106a6565b828001600101855582156106a6579182015b828111156106a657825182559160200191906001019061068b565b506106b29291506106b6565b5090565b61038391905b808211156106b257600081556001016106bc565b80356106db81610b62565b92915050565b600082601f8301126106f257600080fd5b813561070561070082610ac5565b610a9e565b9150808252602083016020830185838301111561072157600080fd5b61072c838284610b1c565b50505092915050565b80356106db81610b79565b60006020828403121561075257600080fd5b600061075e84846106d0565b949350505050565b6000806040838503121561077957600080fd5b823567ffffffffffffffff81111561079057600080fd5b61079c858286016106e1565b925050602083013567ffffffffffffffff8111156107b957600080fd5b6107c5858286016106e1565b9150509250929050565b6000602082840312156107e157600080fd5b600061075e8484610735565b60006107f98383610956565b9392505050565b61080981610b00565b82525050565b600061081a82610af3565b6108248185610af7565b93508360208202850161083685610aed565b8060005b85811015610870578484038952815161085385826107ed565b945061085e83610aed565b60209a909a019992505060010161083a565b5091979650505050505050565b61080981610b0b565b600061089182610af3565b61089b8185610af7565b93506108ab818560208601610b28565b6108b481610b58565b9093019392505050565b60006108cb601a83610af7565b7f4f6e6c7920746865206f776e65722063616e20646f2074686973000000000000815260200192915050565b6000610904601183610af7565b70496e76616c69642063616e64696461746560781b815260200192915050565b6000610931601683610af7565b75165bdd481a185d9948185b1c9958591e481d9bdd195960521b815260200192915050565b8051600090608084019061096a85826109b9565b50602083015184820360208601526109828282610886565b9150506040830151848203604086015261099c8282610886565b91505060608301516109b160608601826109b9565b509392505050565b61080981610383565b602081016106db8284610800565b602080825281016107f9818461080f565b602081016106db828461087d565b60408082528101610a008185610886565b9050818103602083015261075e8184610886565b602080825281016106db816108be565b602080825281016106db816108f7565b602080825281016106db81610924565b602081016106db82846109b9565b60808101610a6082876109b9565b8181036020830152610a728186610886565b90508181036040830152610a868185610886565b9050610a9560608301846109b9565b95945050505050565b60405181810167ffffffffffffffff81118282101715610abd57600080fd5b604052919050565b600067ffffffffffffffff821115610adc57600080fd5b506020601f91909101601f19160190565b60200190565b5190565b90815260200190565b60006106db82610b10565b151590565b6001600160a01b031690565b82818337506000910152565b60005b83811015610b43578181015183820152602001610b2b565b83811115610b52576000848401525b50505050565b601f01601f191690565b610b6b81610b00565b8114610b7657600080fd5b50565b610b6b8161038356fea365627a7a723158206f6ef7aa04345c6129a28d7f0065d2fb8559f394a7aab83545e64838889564436c6578706572696d656e74616cf564736f6c63430005100040",
  "source": "// contracts/VotingContract.sol\r\npragma solidity ^0.5.16;\r\npragma experimental ABIEncoderV2;\r\n\r\ncontract VotingContract {\r\n    struct Candidate {\r\n        uint id;\r\n        string name;\r\n        string imageUrl;\r\n        uint voteCount;\r\n    }\r\n\r\n    Candidate[] public candidates;\r\n    mapping(address => bool) public hasVoted;\r\n    address public owner;\r\n\r\n    event VoteRecorded(address indexed voter, uint candidateId);\r\n    event CandidateAdded(\r\n        uint indexed candidateId,\r\n        string name,\r\n        string imageUrl\r\n    );\r\n\r\n    constructor() public {\r\n        owner = msg.sender;\r\n        // Optionally initialize with a couple of candidates, or leave empty\r\n    }\r\n\r\n    modifier onlyOwner() {\r\n        require(msg.sender == owner, \"Only the owner can do this\");\r\n        _;\r\n    }\r\n\r\n    function vote(uint candidateId) public {\r\n        require(!hasVoted[msg.sender], \"You have already voted\");\r\n        require(candidateId < candidates.length, \"Invalid candidate\");\r\n\r\n        hasVoted[msg.sender] = true;\r\n        candidates[candidateId].voteCount++;\r\n        emit VoteRecorded(msg.sender, candidateId);\r\n    }\r\n\r\n    function addCandidate(\r\n        string memory _name,\r\n        string memory _imageUrl\r\n    ) public onlyOwner {\r\n        uint newId = candidates.length;\r\n        candidates.push(Candidate(newId, _name, _imageUrl, 0));\r\n        emit CandidateAdded(newId, _name, _imageUrl);\r\n    }\r\n\r\n    function getCandidates() public view returns (Candidate[] memory) {\r\n        return candidates;\r\n    }\r\n}\r\n",
  "sourcePath": "C:\\Users\\proga\\Desktop\\Projects\\CHMTTR\\election\\contracts\\VotingContract.sol",
  "compiler": {
    "name": "solc",
    "version": "0.5.16+commit.9c3226ce.Emscripten.clang"
  },
  "schemaVersion": "3.4.16",
  "updatedAt": "2025-03-11T13:01:38.930Z",
  "networkType": "ethereum",
  "devdoc": {
    "methods": {}
  },
  "userdoc": {
    "methods": {}
  }
}